{
  "contractName": "ERC20Handler",
  "abi": [
    {
      "inputs": [
        {
          "internalType": "address",
          "name": "bridgeAddress",
          "type": "address"
        }
      ],
      "stateMutability": "nonpayable",
      "type": "constructor"
    },
    {
      "inputs": [
        {
          "internalType": "address",
          "name": "contractAddress",
          "type": "address"
        }
      ],
      "name": "ContractAddressNotWhitelisted",
      "type": "error"
    },
    {
      "inputs": [],
      "name": "_bridgeAddress",
      "outputs": [
        {
          "internalType": "address",
          "name": "",
          "type": "address"
        }
      ],
      "stateMutability": "view",
      "type": "function"
    },
    {
      "inputs": [
        {
          "internalType": "bytes32",
          "name": "",
          "type": "bytes32"
        }
      ],
      "name": "_resourceIDToTokenContractAddress",
      "outputs": [
        {
          "internalType": "address",
          "name": "",
          "type": "address"
        }
      ],
      "stateMutability": "view",
      "type": "function"
    },
    {
      "inputs": [
        {
          "internalType": "address",
          "name": "",
          "type": "address"
        }
      ],
      "name": "_tokenContractAddressToTokenProperties",
      "outputs": [
        {
          "internalType": "bytes32",
          "name": "resourceID",
          "type": "bytes32"
        },
        {
          "internalType": "bool",
          "name": "isWhitelisted",
          "type": "bool"
        },
        {
          "internalType": "bool",
          "name": "isBurnable",
          "type": "bool"
        },
        {
          "components": [
            {
              "internalType": "bool",
              "name": "isSet",
              "type": "bool"
            },
            {
              "internalType": "uint8",
              "name": "externalDecimals",
              "type": "uint8"
            }
          ],
          "internalType": "struct ERCHandlerHelpers.Decimals",
          "name": "decimals",
          "type": "tuple"
        }
      ],
      "stateMutability": "view",
      "type": "function"
    },
    {
      "inputs": [],
      "name": "defaultDecimals",
      "outputs": [
        {
          "internalType": "uint8",
          "name": "",
          "type": "uint8"
        }
      ],
      "stateMutability": "view",
      "type": "function"
    },
    {
      "inputs": [
        {
          "internalType": "address",
          "name": "contractAddress",
          "type": "address"
        }
      ],
      "name": "setBurnable",
      "outputs": [],
      "stateMutability": "nonpayable",
      "type": "function"
    },
    {
      "inputs": [
        {
          "internalType": "bytes32",
          "name": "resourceID",
          "type": "bytes32"
        },
        {
          "internalType": "address",
          "name": "depositor",
          "type": "address"
        },
        {
          "internalType": "bytes",
          "name": "data",
          "type": "bytes"
        }
      ],
      "name": "deposit",
      "outputs": [
        {
          "internalType": "bytes",
          "name": "",
          "type": "bytes"
        }
      ],
      "stateMutability": "nonpayable",
      "type": "function"
    },
    {
      "inputs": [
        {
          "internalType": "bytes32",
          "name": "resourceID",
          "type": "bytes32"
        },
        {
          "internalType": "bytes",
          "name": "data",
          "type": "bytes"
        }
      ],
      "name": "executeProposal",
      "outputs": [
        {
          "internalType": "bytes",
          "name": "",
          "type": "bytes"
        }
      ],
      "stateMutability": "nonpayable",
      "type": "function"
    },
    {
      "inputs": [
        {
          "internalType": "bytes",
          "name": "data",
          "type": "bytes"
        }
      ],
      "name": "withdraw",
      "outputs": [],
      "stateMutability": "nonpayable",
      "type": "function"
    },
    {
      "inputs": [
        {
          "internalType": "bytes32",
          "name": "resourceID",
          "type": "bytes32"
        },
        {
          "internalType": "address",
          "name": "contractAddress",
          "type": "address"
        },
        {
          "internalType": "bytes",
          "name": "args",
          "type": "bytes"
        }
      ],
      "name": "setResource",
      "outputs": [],
      "stateMutability": "nonpayable",
      "type": "function"
    }
  ],
  "bytecode": "0x60a060405234801561001057600080fd5b506040516110d83803806110d883398101604081905261002f91610040565b6001600160a01b0316608052610070565b60006020828403121561005257600080fd5b81516001600160a01b038116811461006957600080fd5b9392505050565b60805161104661009260003960008181610125015261054b01526110466000f3fe608060405234801561001057600080fd5b50600436106100935760003560e01c8063318c136e11610066578063318c136e14610120578063ac607c2114610147578063b07e54bb146101dc578063e248cff2146101fc578063fa8675b01461020f57600080fd5b806307b7ed99146100985780630968f264146100ad5780630a6d55d8146100c057806330f08abd14610106575b600080fd5b6100ab6100a6366004610b3a565b610222565b005b6100ab6100bb366004610b74565b610236565b6100e96100ce366004610c25565b6000602081905290815260409020546001600160a01b031681565b6040516001600160a01b0390911681526020015b60405180910390f35b61010e601281565b60405160ff90911681526020016100fd565b6100e97f000000000000000000000000000000000000000000000000000000000000000081565b6101a4610155366004610b3a565b600160208181526000928352604092839020805492810154845180860190955260029091015460ff81811615158652610100918290048116938601939093529293828216939091049091169084565b6040805194855292151560208086019190915291151592840192909252815115156060840152015160ff16608082015260a0016100fd565b6101ef6101ea366004610c87565b61026f565b6040516100fd9190610d0f565b6101ef61020a366004610d42565b61035c565b6100ab61021d366004610c87565b6104c9565b61022a610540565b610233816105ba565b50565b61023e610540565b6000806000838060200190518101906102579190610d8e565b9194509250905061026983838361062c565b50505050565b6060610279610540565b600061028783850185610c25565b600087815260208181526040808320546001600160a01b0316808452600192839052922001549192509060ff166102e1576040516325df77c560e11b81526001600160a01b03821660048201526024015b60405180910390fd5b6001600160a01b03811660009081526001602081905260409091200154610100900460ff161561031b57610316818784610638565b610327565b610327818730856106a4565b61033181836106b1565b6040516020016103419190610dd1565b60405160208183030381529060405292505050949350505050565b6060610366610540565b600080606061037785870187610ded565b90935091508560408661038a8583610e25565b9261039793929190610e3d565b8080601f01602080910402602001604051908101604052809392919081815260200183838082843760009201829052508b81526020818152604080832054828801516001600160a01b039091168085526001938490529190932090910154959650909490935060ff16915061042c9050576040516325df77c560e11b81526001600160a01b03821660048201526024016102d8565b6001600160a01b03811660009081526001602081905260409091200154610100900460ff16156104725761046d818360601c610468848961079f565b610851565b610489565b610489818360601c610484848961079f565b61062c565b604080516001600160a01b03929092166020830152606092831c828201528282019590955284518082039092018252608001909352509095945050505050565b6104d1610540565b60008481526020818152604080832080546001600160a01b0319166001600160a01b03881690811790915583526001918290529091208581558101805461ffff19169091179055801561026957600061052a8284610e67565b60f81c90506105398482610889565b5050505050565b336001600160a01b037f000000000000000000000000000000000000000000000000000000000000000016146105b85760405162461bcd60e51b815260206004820152601e60248201527f73656e646572206d7573742062652062726964676520636f6e7472616374000060448201526064016102d8565b565b6001600160a01b0381166000908152600160208190526040909120015460ff16610602576040516325df77c560e11b81526001600160a01b03821660048201526024016102d8565b6001600160a01b0316600090815260016020819052604090912001805461ff001916610100179055565b82610269818484610933565b60405163079cc67960e41b81526001600160a01b038381166004830152602482018390528491908216906379cc6790906044015b600060405180830381600087803b15801561068657600080fd5b505af115801561069a573d6000803e3d6000fd5b5050505050505050565b836105398185858561099b565b6001600160a01b038216600090815260016020908152604080832081518083019092526002015460ff808216151580845261010090920416928201929092526060929091610712576040518060200160405280600081525092505050610799565b601260ff16826020015160ff161061075157601282602001516107359190610e97565b61074090600a610f9e565b61074a9085610fad565b9050610779565b6020820151610761906012610e97565b61076c90600a610f9e565b6107769085610fcf565b90505b604080516020810183905201604051602081830303815290604052925050505b92915050565b6001600160a01b038216600090815260016020908152604080832081518083019092526002015460ff80821615158084526101009092041692820192909252906107ec5782915050610799565b601260ff16816020015160ff161061082c576012816020015161080f9190610e97565b61081a90600a610f9e565b6108249084610fcf565b915050610799565b602081015161083c906012610e97565b61084790600a610f9e565b6108249084610fad565b6040516340c10f1960e01b81526001600160a01b038381166004830152602482018390528491908216906340c10f199060440161066c565b6001600160a01b0382166000908152600160208190526040909120015460ff166108d1576040516325df77c560e11b81526001600160a01b03831660048201526024016102d8565b604080518082018252600180825260ff93841660208084019182526001600160a01b039690961660009081529190955291909120905160029091018054935161ffff1990941691151561ff001916919091176101009390921692909202179055565b6040516001600160a01b03831660248201526044810182905261099690849063a9059cbb60e01b906064015b60408051601f198184030181529190526020810180516001600160e01b03166001600160e01b0319909316929092179091526109d3565b505050565b6040516001600160a01b03808516602483015283166044820152606481018290526102699085906323b872dd60e01b9060840161095f565b813b80610a1a5760405162461bcd60e51b8152602060048201526015602482015274115490cc8c0e881b9bdd08184818dbdb9d1c9858dd605a1b60448201526064016102d8565b600080846001600160a01b031684604051610a359190610dd1565b6000604051808303816000865af19150503d8060008114610a72576040519150601f19603f3d011682016040523d82523d6000602084013e610a77565b606091505b509150915081610abe5760405162461bcd60e51b8152602060048201526012602482015271115490cc8c0e8818d85b1b0819985a5b195960721b60448201526064016102d8565b8051156105395780806020019051810190610ad99190610fee565b6105395760405162461bcd60e51b815260206004820181905260248201527f45524332303a206f7065726174696f6e20646964206e6f74207375636365656460448201526064016102d8565b6001600160a01b038116811461023357600080fd5b600060208284031215610b4c57600080fd5b8135610b5781610b25565b9392505050565b634e487b7160e01b600052604160045260246000fd5b600060208284031215610b8657600080fd5b813567ffffffffffffffff80821115610b9e57600080fd5b818401915084601f830112610bb257600080fd5b813581811115610bc457610bc4610b5e565b604051601f8201601f19908116603f01168101908382118183101715610bec57610bec610b5e565b81604052828152876020848701011115610c0557600080fd5b826020860160208301376000928101602001929092525095945050505050565b600060208284031215610c3757600080fd5b5035919050565b60008083601f840112610c5057600080fd5b50813567ffffffffffffffff811115610c6857600080fd5b602083019150836020828501011115610c8057600080fd5b9250929050565b60008060008060608587031215610c9d57600080fd5b843593506020850135610caf81610b25565b9250604085013567ffffffffffffffff811115610ccb57600080fd5b610cd787828801610c3e565b95989497509550505050565b60005b83811015610cfe578181015183820152602001610ce6565b838111156102695750506000910152565b6020815260008251806020840152610d2e816040850160208701610ce3565b601f01601f19169190910160400192915050565b600080600060408486031215610d5757600080fd5b83359250602084013567ffffffffffffffff811115610d7557600080fd5b610d8186828701610c3e565b9497909650939450505050565b600080600060608486031215610da357600080fd5b8351610dae81610b25565b6020850151909350610dbf81610b25565b80925050604084015190509250925092565b60008251610de3818460208701610ce3565b9190910192915050565b60008060408385031215610e0057600080fd5b50508035926020909101359150565b634e487b7160e01b600052601160045260246000fd5b60008219821115610e3857610e38610e0f565b500190565b60008085851115610e4d57600080fd5b83861115610e5a57600080fd5b5050820193919092039150565b6001600160f81b03198135818116916001851015610e8f5780818660010360031b1b83161692505b505092915050565b600060ff821660ff841680821015610eb157610eb1610e0f565b90039392505050565b600181815b80851115610ef5578160001904821115610edb57610edb610e0f565b80851615610ee857918102915b93841c9390800290610ebf565b509250929050565b600082610f0c57506001610799565b81610f1957506000610799565b8160018114610f2f5760028114610f3957610f55565b6001915050610799565b60ff841115610f4a57610f4a610e0f565b50506001821b610799565b5060208310610133831016604e8410600b8410161715610f78575081810a610799565b610f828383610eba565b8060001904821115610f9657610f96610e0f565b029392505050565b6000610b5760ff841683610efd565b600082610fca57634e487b7160e01b600052601260045260246000fd5b500490565b6000816000190483118215151615610fe957610fe9610e0f565b500290565b60006020828403121561100057600080fd5b81518015158114610b5757600080fdfea264697066735822122011fbb6000e9f9b88b02803a849623347bcd0689515666591cfa740b5c19884f464736f6c634300080b0033",
  "immutableReferences": {
    "10791": [
      {
        "length": 32,
        "start": 293
      },
      {
        "length": 32,
        "start": 1355
      }
    ]
  },
  "source": "// The Licensed Work is (c) 2022 Sygma\n// SPDX-License-Identifier: LGPL-3.0-only\npragma solidity 0.8.11;\n\nimport \"../interfaces/IHandler.sol\";\nimport \"./ERCHandlerHelpers.sol\";\nimport \"../ERC20Safe.sol\";\n\n/**\n    @title Handles ERC20 deposits and deposit executions.\n    @author ChainSafe Systems.\n    @notice This contract is intended to be used with the Bridge contract.\n */\ncontract ERC20Handler is IHandler, ERCHandlerHelpers, ERC20Safe {\n    /**\n        @param bridgeAddress Contract address of previously deployed Bridge.\n     */\n    constructor(\n        address          bridgeAddress\n    ) ERCHandlerHelpers(bridgeAddress) {\n    }\n\n    /**\n        @notice A deposit is initiated by making a deposit in the Bridge contract.\n        @param resourceID ResourceID used to find address of token to be used for deposit.\n        @param depositor Address of account making the deposit in the Bridge contract.\n        @param data Consists of {amount} padded to 32 bytes.\n        @notice Data passed into the function should be constructed as follows:\n        amount                                      uint256     bytes   0 - 32\n        destinationRecipientAddress     length      uint256     bytes  32 - 64\n        destinationRecipientAddress                 bytes       bytes  64 - END\n        @dev Depending if the corresponding {tokenAddress} for the parsed {resourceID} is\n        marked true in {_tokenContractAddressToTokenProperties[tokenAddress].isBurnable}, deposited tokens will be burned, if not, they will be locked.\n        @return an empty data.\n     */\n    function deposit(\n        bytes32 resourceID,\n        address depositor,\n        bytes   calldata data\n    ) external override onlyBridge returns (bytes memory) {\n        uint256        amount;\n        (amount) = abi.decode(data, (uint));\n\n        address tokenAddress = _resourceIDToTokenContractAddress[resourceID];\n        if (!_tokenContractAddressToTokenProperties[tokenAddress].isWhitelisted) revert ContractAddressNotWhitelisted(tokenAddress);\n\n        if (_tokenContractAddressToTokenProperties[tokenAddress].isBurnable) {\n            burnERC20(tokenAddress, depositor, amount);\n        } else {\n            lockERC20(tokenAddress, depositor, address(this), amount);\n        }\n\n        return abi.encodePacked(convertToInternalBalance(tokenAddress, amount));\n    }\n\n    /**\n        @notice Proposal execution should be initiated when a proposal is finalized in the Bridge contract.\n        by a relayer on the deposit's destination chain.\n        @param resourceID ResourceID to be used when making deposits.\n        @param data Consists of {resourceID}, {amount}, {lenDestinationRecipientAddress},\n        and {destinationRecipientAddress} all padded to 32 bytes.\n        @notice Data passed into the function should be constructed as follows:\n        amount                                 uint256     bytes  0 - 32\n        destinationRecipientAddress length     uint256     bytes  32 - 64\n        destinationRecipientAddress            bytes       bytes  64 - END\n     */\n    function executeProposal(bytes32 resourceID, bytes calldata data) external override onlyBridge returns (bytes memory) {\n        uint256       amount;\n        uint256       lenDestinationRecipientAddress;\n        bytes  memory destinationRecipientAddress;\n\n        (amount, lenDestinationRecipientAddress) = abi.decode(data, (uint, uint));\n        destinationRecipientAddress = bytes(data[64:64 + lenDestinationRecipientAddress]);\n\n        bytes20 recipientAddress;\n        address tokenAddress = _resourceIDToTokenContractAddress[resourceID];\n\n        assembly {\n            recipientAddress := mload(add(destinationRecipientAddress, 0x20))\n        }\n\n        if (!_tokenContractAddressToTokenProperties[tokenAddress].isWhitelisted) revert ContractAddressNotWhitelisted(tokenAddress);\n\n        if (_tokenContractAddressToTokenProperties[tokenAddress].isBurnable) {\n            mintERC20(tokenAddress, address(recipientAddress), convertToExternalBalance(tokenAddress, amount));\n        } else {\n            releaseERC20(tokenAddress, address(recipientAddress), convertToExternalBalance(tokenAddress, amount));\n        }\n        return abi.encode(tokenAddress, address(recipientAddress), amount);\n    }\n\n    /**\n        @notice Used to manually release ERC20 tokens from ERC20Safe.\n        @param data Consists of {tokenAddress}, {recipient}, and {amount} all padded to 32 bytes.\n        @notice Data passed into the function should be constructed as follows:\n        tokenAddress                           address     bytes  0 - 32\n        recipient                              address     bytes  32 - 64\n        amount                                 uint        bytes  64 - 96\n     */\n    function withdraw(bytes memory data) external override onlyBridge {\n        address tokenAddress;\n        address recipient;\n        uint amount;\n\n        (tokenAddress, recipient, amount) = abi.decode(data, (address, address, uint));\n\n        releaseERC20(tokenAddress, recipient, amount);\n    }\n\n    /**\n        @notice Sets {_resourceIDToContractAddress} with {contractAddress},\n        {_tokenContractAddressToTokenProperties[tokenAddress].resourceID} with {resourceID} and\n        {_tokenContractAddressToTokenProperties[tokenAddress].isWhitelisted} to true for {contractAddress} in ERCHandlerHelpers contract.\n        Sets decimals value for contractAddress if value is provided in args.\n        @param resourceID ResourceID to be used when making deposits.\n        @param contractAddress Address of contract to be called when a deposit is made and a deposited is executed.\n        @param args Additional data to be passed to specified handler.\n     */\n    function setResource(bytes32 resourceID, address contractAddress, bytes calldata args) external onlyBridge {\n        _setResource(resourceID, contractAddress);\n\n        if (args.length > 0) {\n            uint8 externalTokenDecimals = uint8(bytes1(args));\n            _setDecimals(contractAddress, externalTokenDecimals);\n        }\n    }\n}\n",
  "sourcePath": "/home/rakan/Work/Highway/sygma-solidity/contracts/handlers/ERC20Handler.sol",
  "compiler": {
    "name": "solc",
    "version": "0.8.11+commit.d7f03943.Emscripten.clang"
  },
  "schemaVersion": "3.4.16",
  "updatedAt": "2024-08-27T11:30:42.324Z",
  "devdoc": {
    "author": "ChainSafe Systems.",
    "kind": "dev",
    "methods": {
      "constructor": {
        "params": {
          "bridgeAddress": "Contract address of previously deployed Bridge."
        }
      },
      "deposit(bytes32,address,bytes)": {
        "details": "Depending if the corresponding {tokenAddress} for the parsed {resourceID} is marked true in {_tokenContractAddressToTokenProperties[tokenAddress].isBurnable}, deposited tokens will be burned, if not, they will be locked.",
        "params": {
          "data": "Consists of {amount} padded to 32 bytes.",
          "depositor": "Address of account making the deposit in the Bridge contract.",
          "resourceID": "ResourceID used to find address of token to be used for deposit."
        },
        "returns": {
          "_0": "an empty data."
        }
      },
      "executeProposal(bytes32,bytes)": {
        "params": {
          "data": "Consists of {resourceID}, {amount}, {lenDestinationRecipientAddress}, and {destinationRecipientAddress} all padded to 32 bytes.",
          "resourceID": "ResourceID to be used when making deposits."
        }
      },
      "setBurnable(address)": {
        "params": {
          "contractAddress": "Address of contract to be used when making or executing deposits."
        }
      },
      "setResource(bytes32,address,bytes)": {
        "params": {
          "args": "Additional data to be passed to specified handler.",
          "contractAddress": "Address of contract to be called when a deposit is made and a deposited is executed.",
          "resourceID": "ResourceID to be used when making deposits."
        }
      },
      "withdraw(bytes)": {
        "params": {
          "data": "Consists of {tokenAddress}, {recipient}, and {amount} all padded to 32 bytes."
        }
      }
    },
    "title": "Handles ERC20 deposits and deposit executions.",
    "version": 1
  },
  "userdoc": {
    "kind": "user",
    "methods": {
      "_resourceIDToTokenContractAddress(bytes32)": {
        "notice": "Exposing getter for {_resourceIDToTokenContractAddress}."
      },
      "deposit(bytes32,address,bytes)": {
        "notice": "A deposit is initiated by making a deposit in the Bridge contract.Data passed into the function should be constructed as follows: amount                                      uint256     bytes   0 - 32 destinationRecipientAddress     length      uint256     bytes  32 - 64 destinationRecipientAddress                 bytes       bytes  64 - END"
      },
      "executeProposal(bytes32,bytes)": {
        "notice": "Proposal execution should be initiated when a proposal is finalized in the Bridge contract. by a relayer on the deposit's destination chain.Data passed into the function should be constructed as follows: amount                                 uint256     bytes  0 - 32 destinationRecipientAddress length     uint256     bytes  32 - 64 destinationRecipientAddress            bytes       bytes  64 - END"
      },
      "setBurnable(address)": {
        "notice": "First verifies {contractAddress} is whitelisted, then sets {_tokenContractAddressToTokenProperties[contractAddress].isBurnable} to true."
      },
      "setResource(bytes32,address,bytes)": {
        "notice": "Sets {_resourceIDToContractAddress} with {contractAddress}, {_tokenContractAddressToTokenProperties[tokenAddress].resourceID} with {resourceID} and {_tokenContractAddressToTokenProperties[tokenAddress].isWhitelisted} to true for {contractAddress} in ERCHandlerHelpers contract. Sets decimals value for contractAddress if value is provided in args."
      },
      "withdraw(bytes)": {
        "notice": "Used to manually release ERC20 tokens from ERC20Safe.Data passed into the function should be constructed as follows: tokenAddress                           address     bytes  0 - 32 recipient                              address     bytes  32 - 64 amount                                 uint        bytes  64 - 96"
      }
    },
    "notice": "This contract is intended to be used with the Bridge contract.",
    "version": 1
  }
}